{
  "contractName": "ShipmentCenter",
  "abi": [
    {
      "inputs": [],
      "name": "getShipments",
      "outputs": [
        {
          "internalType": "address[]",
          "name": "",
          "type": "address[]"
        }
      ],
      "stateMutability": "view",
      "type": "function",
      "constant": true
    },
    {
      "inputs": [
        {
          "internalType": "address",
          "name": "x",
          "type": "address"
        }
      ],
      "name": "get",
      "outputs": [
        {
          "internalType": "address[]",
          "name": "",
          "type": "address[]"
        }
      ],
      "stateMutability": "view",
      "type": "function",
      "constant": true
    },
    {
      "inputs": [
        {
          "internalType": "uint64",
          "name": "_value",
          "type": "uint64"
        }
      ],
      "name": "createShipment",
      "outputs": [],
      "stateMutability": "nonpayable",
      "type": "function"
    },
    {
      "inputs": [
        {
          "internalType": "address",
          "name": "shipment",
          "type": "address"
        },
        {
          "internalType": "address",
          "name": "to",
          "type": "address"
        }
      ],
      "name": "transferShipment",
      "outputs": [],
      "stateMutability": "nonpayable",
      "type": "function"
    },
    {
      "inputs": [
        {
          "internalType": "address",
          "name": "shipment",
          "type": "address"
        }
      ],
      "name": "completeShipment",
      "outputs": [],
      "stateMutability": "nonpayable",
      "type": "function"
    }
  ],
  "bytecode": "0x608060405234801561001057600080fd5b50611084806100206000396000f3fe608060405234801561001057600080fd5b50600436106100575760003560e01c8063347e2a161461005c5780634572290d1461007a57806350d5f311146100965780637ac4c844146100b2578063c2bc2efc146100ce575b600080fd5b6100646100fe565b6040516100719190610a30565b60405180910390f35b610094600480360381019061008f919061089e565b6101c8565b005b6100b060048036038101906100ab91906108f0565b6101db565b005b6100cc60048036038101906100c7919061092c565b610303565b005b6100e860048036038101906100e3919061089e565b6103e2565b6040516100f59190610a30565b60405180910390f35b60606000803373ffffffffffffffffffffffffffffffffffffffff1673ffffffffffffffffffffffffffffffffffffffff1681526020019081526020016000208054806020026020016040519081016040528092919081815260200182805480156101be57602002820191906000526020600020905b8160009054906101000a900473ffffffffffffffffffffffffffffffffffffffff1673ffffffffffffffffffffffffffffffffffffffff1681526020019060010190808311610174575b5050505050905090565b60008190506101d6816104ae565b505050565b60008290506101e9816104ae565b6101f257600080fd5b8073ffffffffffffffffffffffffffffffffffffffff1663299a7bcc33846040518363ffffffff1660e01b815260040161022d929190610a07565b600060405180830381600087803b15801561024757600080fd5b505af115801561025b573d6000803e3d6000fd5b505050506000808373ffffffffffffffffffffffffffffffffffffffff1673ffffffffffffffffffffffffffffffffffffffff168152602001908152602001600020839080600181540180825580915050600190039060005260206000200160009091909190916101000a81548173ffffffffffffffffffffffffffffffffffffffff021916908373ffffffffffffffffffffffffffffffffffffffff160217905550505050565b600081333360405161031490610852565b61032093929190610a52565b604051809103906000f08015801561033c573d6000803e3d6000fd5b5090506000803373ffffffffffffffffffffffffffffffffffffffff1673ffffffffffffffffffffffffffffffffffffffff168152602001908152602001600020819080600181540180825580915050600190039060005260206000200160009091909190916101000a81548173ffffffffffffffffffffffffffffffffffffffff021916908373ffffffffffffffffffffffffffffffffffffffff1602179055505050565b60606000808373ffffffffffffffffffffffffffffffffffffffff1673ffffffffffffffffffffffffffffffffffffffff1681526020019081526020016000208054806020026020016040519081016040528092919081815260200182805480156104a257602002820191906000526020600020905b8160009054906101000a900473ffffffffffffffffffffffffffffffffffffffff1673ffffffffffffffffffffffffffffffffffffffff1681526020019060010190808311610458575b50505050509050919050565b600080600090505b6000803373ffffffffffffffffffffffffffffffffffffffff1673ffffffffffffffffffffffffffffffffffffffff168152602001908152602001600020805490508163ffffffff161015610847578273ffffffffffffffffffffffffffffffffffffffff166000803373ffffffffffffffffffffffffffffffffffffffff1673ffffffffffffffffffffffffffffffffffffffff1681526020019081526020016000208263ffffffff168154811061056b57fe5b9060005260206000200160009054906101000a900473ffffffffffffffffffffffffffffffffffffffff1673ffffffffffffffffffffffffffffffffffffffff16141561083c578273ffffffffffffffffffffffffffffffffffffffff16638da5cb5b6040518163ffffffff1660e01b815260040160206040518083038186803b1580156105f857600080fd5b505afa15801561060c573d6000803e3d6000fd5b505050506040513d601f19601f8201168201806040525081019061063091906108c7565b73ffffffffffffffffffffffffffffffffffffffff163373ffffffffffffffffffffffffffffffffffffffff161461066757600080fd5b6000803373ffffffffffffffffffffffffffffffffffffffff1673ffffffffffffffffffffffffffffffffffffffff16815260200190815260200160002060016000803373ffffffffffffffffffffffffffffffffffffffff1673ffffffffffffffffffffffffffffffffffffffff1681526020019081526020016000208054905003815481106106f457fe5b9060005260206000200160009054906101000a900473ffffffffffffffffffffffffffffffffffffffff166000803373ffffffffffffffffffffffffffffffffffffffff1673ffffffffffffffffffffffffffffffffffffffff1681526020019081526020016000208263ffffffff168154811061076e57fe5b9060005260206000200160006101000a81548173ffffffffffffffffffffffffffffffffffffffff021916908373ffffffffffffffffffffffffffffffffffffffff1602179055506000803373ffffffffffffffffffffffffffffffffffffffff1673ffffffffffffffffffffffffffffffffffffffff1681526020019081526020016000208054806107fd57fe5b6001900381819060005260206000200160006101000a81549073ffffffffffffffffffffffffffffffffffffffff02191690559055600191505061084d565b8060010190506104b6565b50600090505b919050565b6104e280610b6d83390190565b60008135905061086e81610b3e565b92915050565b60008151905061088381610b3e565b92915050565b60008135905061089881610b55565b92915050565b6000602082840312156108b057600080fd5b60006108be8482850161085f565b91505092915050565b6000602082840312156108d957600080fd5b60006108e784828501610874565b91505092915050565b6000806040838503121561090357600080fd5b60006109118582860161085f565b92505060206109228582860161085f565b9150509250929050565b60006020828403121561093e57600080fd5b600061094c84828501610889565b91505092915050565b6000610961838361097c565b60208301905092915050565b61097681610b08565b82525050565b61098581610ac2565b82525050565b61099481610ac2565b82525050565b60006109a582610a99565b6109af8185610ab1565b93506109ba83610a89565b8060005b838110156109eb5781516109d28882610955565b97506109dd83610aa4565b9250506001810190506109be565b5085935050505092915050565b610a0181610af4565b82525050565b6000604082019050610a1c600083018561096d565b610a29602083018461098b565b9392505050565b60006020820190508181036000830152610a4a818461099a565b905092915050565b6000606082019050610a6760008301866109f8565b610a74602083018561096d565b610a81604083018461096d565b949350505050565b6000819050602082019050919050565b600081519050919050565b6000602082019050919050565b600082825260208201905092915050565b6000610acd82610ad4565b9050919050565b600073ffffffffffffffffffffffffffffffffffffffff82169050919050565b600067ffffffffffffffff82169050919050565b6000610b1382610b1a565b9050919050565b6000610b2582610b2c565b9050919050565b6000610b3782610ad4565b9050919050565b610b4781610ac2565b8114610b5257600080fd5b50565b610b5e81610af4565b8114610b6957600080fd5b5056fe608060405234801561001057600080fd5b506040516104e23803806104e28339818101604052810190610032919061010e565b826000806101000a81548167ffffffffffffffff021916908367ffffffffffffffff16021790555081600060086101000a81548173ffffffffffffffffffffffffffffffffffffffff021916908373ffffffffffffffffffffffffffffffffffffffff16021790555080600160006101000a81548173ffffffffffffffffffffffffffffffffffffffff021916908373ffffffffffffffffffffffffffffffffffffffff1602179055505050506101d1565b6000815190506100f3816101a3565b92915050565b600081519050610108816101ba565b92915050565b60008060006060848603121561012357600080fd5b6000610131868287016100f9565b9350506020610142868287016100e4565b9250506040610153868287016100e4565b9150509250925092565b60006101688261016f565b9050919050565b600073ffffffffffffffffffffffffffffffffffffffff82169050919050565b600067ffffffffffffffff82169050919050565b6101ac8161015d565b81146101b757600080fd5b50565b6101c38161018f565b81146101ce57600080fd5b50565b610302806101e06000396000f3fe608060405234801561001057600080fd5b506004361061004c5760003560e01c806302d05d3f14610051578063299a7bcc1461006f5780633fa4f2451461008b5780638da5cb5b146100a9575b600080fd5b6100596100c7565b6040516100669190610239565b60405180910390f35b610089600480360381019061008491906101df565b6100ed565b005b61009361018c565b6040516100a09190610254565b60405180910390f35b6100b16101a4565b6040516100be9190610239565b60405180910390f35b600160009054906101000a900473ffffffffffffffffffffffffffffffffffffffff1681565b8173ffffffffffffffffffffffffffffffffffffffff16600060089054906101000a900473ffffffffffffffffffffffffffffffffffffffff1673ffffffffffffffffffffffffffffffffffffffff161461014757600080fd5b80600060086101000a81548173ffffffffffffffffffffffffffffffffffffffff021916908373ffffffffffffffffffffffffffffffffffffffff1602179055505050565b60008054906101000a900467ffffffffffffffff1681565b600060089054906101000a900473ffffffffffffffffffffffffffffffffffffffff1681565b6000813590506101d9816102b5565b92915050565b600080604083850312156101f257600080fd5b6000610200858286016101ca565b9250506020610211858286016101ca565b9150509250929050565b6102248161026f565b82525050565b610233816102a1565b82525050565b600060208201905061024e600083018461021b565b92915050565b6000602082019050610269600083018461022a565b92915050565b600061027a82610281565b9050919050565b600073ffffffffffffffffffffffffffffffffffffffff82169050919050565b600067ffffffffffffffff82169050919050565b6102be8161026f565b81146102c957600080fd5b5056fea2646970667358221220c594e3f3aa020cb5419c68e1d6743901e9148f0633aad56d804a9af4b4964abe64736f6c63430007040033a26469706673582212204a157a4d3c74495c15aae7b0d39788c23b4a5dde7ea97f9ee6e01f508c8a6ebf64736f6c63430007040033",
  "immutableReferences": {},
  "source": "pragma solidity >=0.4.22 <0.9.0;\npragma experimental ABIEncoderV2;\n\n// Unique shipping token\ncontract Shipment {\n    uint64 public value; // Number of vaccines\n    address public owner;\n    address public creator; // The original Producer\n\n    constructor (uint64 _value, address _owner, address _creator) public {\n        value = _value;\n        owner = _owner;\n        creator = _creator;\n    }\n\n    function setOwner(address from, address to) public {\n        require (owner == from);\n        owner = to;\n    }\n}\n\ncontract ShipmentCenter {\n    mapping (address => address[]) shipments;\n    \n    function getShipments() public view returns (address[] memory) {\n        return shipments[msg.sender];\n    }\n\n    function get(address x) public view returns (address[] memory) {\n        return shipments[x];\n    }\n\n    // TODO: Verify address is Producer (0)\n    function createShipment(uint64 _value) public {\n        Shipment ship = new Shipment(_value, msg.sender, msg.sender);\n        shipments[msg.sender].push(address(ship));\n    }\n\n    function deleteShipment(Shipment ship) internal returns (bool) {\n        for (uint32 i = 0; i < shipments[msg.sender].length; ++i)\n            if (shipments[msg.sender][i] == address(ship)) {\n                require (msg.sender == ship.owner());\n                shipments[msg.sender][i] = shipments[msg.sender][shipments[msg.sender].length-1];\n                shipments[msg.sender].pop();\n                return true;\n            }\n        return false;\n    }\n\n    // TODO: Add verification\n    function transferShipment(address shipment, address to) public {\n        Shipment ship = Shipment(shipment);\n        require (deleteShipment(ship));\n        ship.setOwner(msg.sender, to);\n        shipments[to].push(shipment);\n    }\n\n    //TODO: Verify address is End User (2)\n    function completeShipment(address shipment) public {\n        Shipment ship = Shipment(shipment);\n        deleteShipment(ship);\n    }\n}",
  "sourcePath": "/Users/scotthao/Desktop/menlo/contracts/Shipping.sol",
  "compiler": {
    "name": "solc",
    "version": "0.7.4+commit.3f05b770.Emscripten.clang"
  },
  "schemaVersion": "3.3.4",
  "updatedAt": "2021-03-14T16:31:50.528Z",
  "networkType": "ethereum",
  "devdoc": {
    "kind": "dev",
    "methods": {},
    "version": 1
  },
  "userdoc": {
    "kind": "user",
    "methods": {},
    "version": 1
  }
}