{
  "contractName": "ShipmentCenter",
  "abi": [
    {
      "constant": true,
      "inputs": [],
      "name": "getShipments",
      "outputs": [
        {
          "internalType": "address[]",
          "name": "",
          "type": "address[]"
        }
      ],
      "payable": false,
      "stateMutability": "view",
      "type": "function"
    },
    {
      "constant": false,
      "inputs": [
        {
          "internalType": "uint64",
          "name": "_value",
          "type": "uint64"
        }
      ],
      "name": "createShipment",
      "outputs": [],
      "payable": false,
      "stateMutability": "nonpayable",
      "type": "function"
    },
    {
      "constant": false,
      "inputs": [
        {
          "internalType": "address",
          "name": "shipment",
          "type": "address"
        },
        {
          "internalType": "address",
          "name": "to",
          "type": "address"
        }
      ],
      "name": "transferShipment",
      "outputs": [],
      "payable": false,
      "stateMutability": "nonpayable",
      "type": "function"
    },
    {
      "constant": false,
      "inputs": [
        {
          "internalType": "address",
          "name": "shipment",
          "type": "address"
        }
      ],
      "name": "completeShipment",
      "outputs": [],
      "payable": false,
      "stateMutability": "nonpayable",
      "type": "function"
    }
  ],
  "bytecode": "0x608060405234801561001057600080fd5b50611021806100206000396000f3fe608060405234801561001057600080fd5b506004361061004c5760003560e01c8063347e2a16146100515780634572290d1461006f57806350d5f3111461008b5780637ac4c844146100a7575b600080fd5b6100596100c3565b60405161006691906109c6565b60405180910390f35b61008960048036036100849190810190610842565b61018d565b005b6100a560048036036100a09190810190610894565b6101a0565b005b6100c160048036036100bc91908101906108d0565b6102c9565b005b60606000803373ffffffffffffffffffffffffffffffffffffffff1673ffffffffffffffffffffffffffffffffffffffff16815260200190815260200160002080548060200260200160405190810160405280929190818152602001828054801561018357602002820191906000526020600020905b8160009054906101000a900473ffffffffffffffffffffffffffffffffffffffff1673ffffffffffffffffffffffffffffffffffffffff1681526020019060010190808311610139575b5050505050905090565b600081905061019b81610452565b505050565b60008290506101ae81610452565b6101b757600080fd5b8073ffffffffffffffffffffffffffffffffffffffff166313af4035836040518263ffffffff1660e01b81526004016101f091906109ab565b600060405180830381600087803b15801561020a57600080fd5b505af115801561021e573d6000803e3d6000fd5b505050506000808373ffffffffffffffffffffffffffffffffffffffff1673ffffffffffffffffffffffffffffffffffffffff1681526020019081526020016000208190806001815401808255809150509060018203906000526020600020016000909192909190916101000a81548173ffffffffffffffffffffffffffffffffffffffff021916908373ffffffffffffffffffffffffffffffffffffffff16021790555050505050565b60008133336040516102da906107f6565b6102e6939291906109e8565b604051809103906000f080158015610302573d6000803e3d6000fd5b5090506000803373ffffffffffffffffffffffffffffffffffffffff1673ffffffffffffffffffffffffffffffffffffffff1681526020019081526020016000208190806001815401808255809150509060018203906000526020600020016000909192909190916101000a81548173ffffffffffffffffffffffffffffffffffffffff021916908373ffffffffffffffffffffffffffffffffffffffff1602179055505060018190806001815401808255809150509060018203906000526020600020016000909192909190916101000a81548173ffffffffffffffffffffffffffffffffffffffff021916908373ffffffffffffffffffffffffffffffffffffffff1602179055505033600260006101000a81548173ffffffffffffffffffffffffffffffffffffffff021916908373ffffffffffffffffffffffffffffffffffffffff1602179055505050565b600080600090505b6000803373ffffffffffffffffffffffffffffffffffffffff1673ffffffffffffffffffffffffffffffffffffffff168152602001908152602001600020805490508163ffffffff1610156107eb578273ffffffffffffffffffffffffffffffffffffffff166000803373ffffffffffffffffffffffffffffffffffffffff1673ffffffffffffffffffffffffffffffffffffffff1681526020019081526020016000208263ffffffff168154811061050f57fe5b9060005260206000200160009054906101000a900473ffffffffffffffffffffffffffffffffffffffff1673ffffffffffffffffffffffffffffffffffffffff1614156107e0578273ffffffffffffffffffffffffffffffffffffffff16638da5cb5b6040518163ffffffff1660e01b815260040160206040518083038186803b15801561059c57600080fd5b505afa1580156105b0573d6000803e3d6000fd5b505050506040513d601f19601f820116820180604052506105d4919081019061086b565b73ffffffffffffffffffffffffffffffffffffffff163373ffffffffffffffffffffffffffffffffffffffff161461060b57600080fd5b6000803373ffffffffffffffffffffffffffffffffffffffff1673ffffffffffffffffffffffffffffffffffffffff16815260200190815260200160002060016000803373ffffffffffffffffffffffffffffffffffffffff1673ffffffffffffffffffffffffffffffffffffffff16815260200190815260200160002080549050038154811061069857fe5b9060005260206000200160009054906101000a900473ffffffffffffffffffffffffffffffffffffffff166000803373ffffffffffffffffffffffffffffffffffffffff1673ffffffffffffffffffffffffffffffffffffffff1681526020019081526020016000208263ffffffff168154811061071257fe5b9060005260206000200160006101000a81548173ffffffffffffffffffffffffffffffffffffffff021916908373ffffffffffffffffffffffffffffffffffffffff1602179055506000803373ffffffffffffffffffffffffffffffffffffffff1673ffffffffffffffffffffffffffffffffffffffff1681526020019081526020016000208054806107a157fe5b6001900381819060005260206000200160006101000a81549073ffffffffffffffffffffffffffffffffffffffff0219169055905560019150506107f1565b80600101905061045a565b50600090505b919050565b6104dc80610b0383390190565b60008135905061081281610ad4565b92915050565b60008151905061082781610ad4565b92915050565b60008135905061083c81610aeb565b92915050565b60006020828403121561085457600080fd5b600061086284828501610803565b91505092915050565b60006020828403121561087d57600080fd5b600061088b84828501610818565b91505092915050565b600080604083850312156108a757600080fd5b60006108b585828601610803565b92505060206108c685828601610803565b9150509250929050565b6000602082840312156108e257600080fd5b60006108f08482850161082d565b91505092915050565b60006109058383610920565b60208301905092915050565b61091a81610a9e565b82525050565b61092981610a58565b82525050565b61093881610a58565b82525050565b600061094982610a2f565b6109538185610a47565b935061095e83610a1f565b8060005b8381101561098f57815161097688826108f9565b975061098183610a3a565b925050600181019050610962565b5085935050505092915050565b6109a581610a8a565b82525050565b60006020820190506109c0600083018461092f565b92915050565b600060208201905081810360008301526109e0818461093e565b905092915050565b60006060820190506109fd600083018661099c565b610a0a6020830185610911565b610a176040830184610911565b949350505050565b6000819050602082019050919050565b600081519050919050565b6000602082019050919050565b600082825260208201905092915050565b6000610a6382610a6a565b9050919050565b600073ffffffffffffffffffffffffffffffffffffffff82169050919050565b600067ffffffffffffffff82169050919050565b6000610aa982610ab0565b9050919050565b6000610abb82610ac2565b9050919050565b6000610acd82610a6a565b9050919050565b610add81610a58565b8114610ae857600080fd5b50565b610af481610a8a565b8114610aff57600080fd5b5056fe608060405234801561001057600080fd5b506040516104dc3803806104dc8339818101604052610032919081019061010e565b826000806101000a81548167ffffffffffffffff021916908367ffffffffffffffff16021790555081600060086101000a81548173ffffffffffffffffffffffffffffffffffffffff021916908373ffffffffffffffffffffffffffffffffffffffff16021790555080600160006101000a81548173ffffffffffffffffffffffffffffffffffffffff021916908373ffffffffffffffffffffffffffffffffffffffff1602179055505050506101d1565b6000815190506100f3816101a3565b92915050565b600081519050610108816101ba565b92915050565b60008060006060848603121561012357600080fd5b6000610131868287016100f9565b9350506020610142868287016100e4565b9250506040610153868287016100e4565b9150509250925092565b60006101688261016f565b9050919050565b600073ffffffffffffffffffffffffffffffffffffffff82169050919050565b600067ffffffffffffffff82169050919050565b6101ac8161015d565b81146101b757600080fd5b50565b6101c38161018f565b81146101ce57600080fd5b50565b6102fc806101e06000396000f3fe608060405234801561001057600080fd5b506004361061004c5760003560e01c806302d05d3f1461005157806313af40351461006f5780633fa4f2451461008b5780638da5cb5b146100a9575b600080fd5b6100596100c7565b6040516100669190610226565b60405180910390f35b610089600480360361008491908101906101df565b6100ed565b005b61009361018b565b6040516100a09190610241565b60405180910390f35b6100b16101a4565b6040516100be9190610226565b60405180910390f35b600160009054906101000a900473ffffffffffffffffffffffffffffffffffffffff1681565b600060089054906101000a900473ffffffffffffffffffffffffffffffffffffffff1673ffffffffffffffffffffffffffffffffffffffff163373ffffffffffffffffffffffffffffffffffffffff161461014757600080fd5b80600060086101000a81548173ffffffffffffffffffffffffffffffffffffffff021916908373ffffffffffffffffffffffffffffffffffffffff16021790555050565b6000809054906101000a900467ffffffffffffffff1681565b600060089054906101000a900473ffffffffffffffffffffffffffffffffffffffff1681565b6000813590506101d9816102a2565b92915050565b6000602082840312156101f157600080fd5b60006101ff848285016101ca565b91505092915050565b6102118161025c565b82525050565b6102208161028e565b82525050565b600060208201905061023b6000830184610208565b92915050565b60006020820190506102566000830184610217565b92915050565b60006102678261026e565b9050919050565b600073ffffffffffffffffffffffffffffffffffffffff82169050919050565b600067ffffffffffffffff82169050919050565b6102ab8161025c565b81146102b657600080fd5b5056fea365627a7a72315820d3a0fbb105291d437f702730f13819258a313002dac38f514a279f67cd95a5856c6578706572696d656e74616cf564736f6c63430005100040a365627a7a723158207c8181f438ed8bb3877629eda07d70eb344a342bb88f412676ecd32fe9018e516c6578706572696d656e74616cf564736f6c63430005100040",
  "source": "pragma solidity >=0.4.22 <0.9.0;\npragma experimental ABIEncoderV2;\n\n// Unique shipping token\ncontract Shipment {\n    uint64 public value; // Number of vaccines\n    address public owner;\n    address public creator; // The original Producer\n\n    constructor (uint64 _value, address _owner, address _creator) public {\n        value = _value;\n        owner = _owner;\n        creator = _creator;\n    }\n\n    modifier requireOwner {\n        require (msg.sender == owner);\n        _;\n    }\n\n    function setOwner(address _owner) public requireOwner {\n        owner = _owner;\n    }\n}\n\ncontract ShipmentCenter {\n    mapping (address => address[]) shipments;\n    Shipment[] z;\n    address s;\n    \n    function getShipments() external view returns (address[] memory) {\n        return shipments[msg.sender];\n    }\n\n    // TODO: Verify address is Producer (0)\n    function createShipment(uint64 _value) external {\n        Shipment ship = new Shipment(_value, msg.sender, msg.sender);\n        shipments[msg.sender].push(address(ship));\n        z.push(ship);\n        s = msg.sender;\n    }\n\n    function deleteShipment(Shipment ship) internal returns (bool) {\n        for (uint32 i = 0; i < shipments[msg.sender].length; ++i)\n            if (shipments[msg.sender][i] == address(ship)) {\n                require (msg.sender == ship.owner());\n                shipments[msg.sender][i] = shipments[msg.sender][shipments[msg.sender].length-1];\n                shipments[msg.sender].pop();\n                return true;\n            }\n        return false;\n    }\n\n    // TODO: Add verification\n    function transferShipment(address shipment, address to) external {\n        Shipment ship = Shipment(shipment);\n        require (deleteShipment(ship));\n        ship.setOwner(to);\n        shipments[to].push(address(ship));\n    }\n\n    //TODO: Verify address is End User (2)\n    function completeShipment(address shipment) external {\n        Shipment ship = Shipment(shipment);\n        deleteShipment(ship);\n    }\n}",
  "sourcePath": "/Users/scotthao/Desktop/menlo/contracts/Shipping.sol",
  "compiler": {
    "name": "solc",
    "version": "0.5.16+commit.9c3226ce.Emscripten.clang"
  },
  "schemaVersion": "3.3.4",
  "updatedAt": "2021-03-14T14:18:01.256Z",
  "networkType": "ethereum",
  "devdoc": {
    "methods": {}
  },
  "userdoc": {
    "methods": {}
  }
}