{
  "contractName": "ShipmentCenter",
  "abi": [
    {
      "constant": true,
      "inputs": [],
      "name": "getShipments",
      "outputs": [
        {
          "internalType": "contract Shipment[]",
          "name": "",
          "type": "address[]"
        }
      ],
      "payable": false,
      "stateMutability": "view",
      "type": "function"
    },
    {
      "constant": false,
      "inputs": [
        {
          "internalType": "uint64",
          "name": "_value",
          "type": "uint64"
        }
      ],
      "name": "createShipment",
      "outputs": [],
      "payable": false,
      "stateMutability": "nonpayable",
      "type": "function"
    },
    {
      "constant": false,
      "inputs": [
        {
          "internalType": "address",
          "name": "shipment",
          "type": "address"
        },
        {
          "internalType": "address",
          "name": "to",
          "type": "address"
        }
      ],
      "name": "transferShipment",
      "outputs": [],
      "payable": false,
      "stateMutability": "nonpayable",
      "type": "function"
    },
    {
      "constant": false,
      "inputs": [
        {
          "internalType": "address",
          "name": "shipment",
          "type": "address"
        }
      ],
      "name": "completeShipment",
      "outputs": [],
      "payable": false,
      "stateMutability": "nonpayable",
      "type": "function"
    }
  ],
  "bytecode": "0x608060405234801561001057600080fd5b50610f9e806100206000396000f3fe608060405234801561001057600080fd5b506004361061004c5760003560e01c8063347e2a16146100515780634572290d1461006f57806350d5f3111461008b5780637ac4c844146100a7575b600080fd5b6100596100c3565b604051610066919061091f565b60405180910390f35b6100896004803603610084919081019061079b565b61018d565b005b6100a560048036036100a091908101906107ed565b6101a0565b005b6100c160048036036100bc9190810190610829565b6102c9565b005b60606000803373ffffffffffffffffffffffffffffffffffffffff1673ffffffffffffffffffffffffffffffffffffffff16815260200190815260200160002080548060200260200160405190810160405280929190818152602001828054801561018357602002820191906000526020600020905b8160009054906101000a900473ffffffffffffffffffffffffffffffffffffffff1673ffffffffffffffffffffffffffffffffffffffff1681526020019060010190808311610139575b5050505050905090565b600081905061019b816103ab565b505050565b60008290506101ae816103ab565b6101b757600080fd5b8073ffffffffffffffffffffffffffffffffffffffff166313af4035836040518263ffffffff1660e01b81526004016101f09190610904565b600060405180830381600087803b15801561020a57600080fd5b505af115801561021e573d6000803e3d6000fd5b505050506000808373ffffffffffffffffffffffffffffffffffffffff1673ffffffffffffffffffffffffffffffffffffffff1681526020019081526020016000208190806001815401808255809150509060018203906000526020600020016000909192909190916101000a81548173ffffffffffffffffffffffffffffffffffffffff021916908373ffffffffffffffffffffffffffffffffffffffff16021790555050505050565b60008133336040516102da9061074f565b6102e693929190610941565b604051809103906000f080158015610302573d6000803e3d6000fd5b5090506000803373ffffffffffffffffffffffffffffffffffffffff1673ffffffffffffffffffffffffffffffffffffffff1681526020019081526020016000208190806001815401808255809150509060018203906000526020600020016000909192909190916101000a81548173ffffffffffffffffffffffffffffffffffffffff021916908373ffffffffffffffffffffffffffffffffffffffff160217905550505050565b600080600090505b6000803373ffffffffffffffffffffffffffffffffffffffff1673ffffffffffffffffffffffffffffffffffffffff168152602001908152602001600020805490508163ffffffff161015610744578273ffffffffffffffffffffffffffffffffffffffff166000803373ffffffffffffffffffffffffffffffffffffffff1673ffffffffffffffffffffffffffffffffffffffff1681526020019081526020016000208263ffffffff168154811061046857fe5b9060005260206000200160009054906101000a900473ffffffffffffffffffffffffffffffffffffffff1673ffffffffffffffffffffffffffffffffffffffff161415610739578273ffffffffffffffffffffffffffffffffffffffff16638da5cb5b6040518163ffffffff1660e01b815260040160206040518083038186803b1580156104f557600080fd5b505afa158015610509573d6000803e3d6000fd5b505050506040513d601f19601f8201168201806040525061052d91908101906107c4565b73ffffffffffffffffffffffffffffffffffffffff163373ffffffffffffffffffffffffffffffffffffffff161461056457600080fd5b6000803373ffffffffffffffffffffffffffffffffffffffff1673ffffffffffffffffffffffffffffffffffffffff16815260200190815260200160002060016000803373ffffffffffffffffffffffffffffffffffffffff1673ffffffffffffffffffffffffffffffffffffffff1681526020019081526020016000208054905003815481106105f157fe5b9060005260206000200160009054906101000a900473ffffffffffffffffffffffffffffffffffffffff166000803373ffffffffffffffffffffffffffffffffffffffff1673ffffffffffffffffffffffffffffffffffffffff1681526020019081526020016000208263ffffffff168154811061066b57fe5b9060005260206000200160006101000a81548173ffffffffffffffffffffffffffffffffffffffff021916908373ffffffffffffffffffffffffffffffffffffffff1602179055506000803373ffffffffffffffffffffffffffffffffffffffff1673ffffffffffffffffffffffffffffffffffffffff1681526020019081526020016000208054806106fa57fe5b6001900381819060005260206000200160006101000a81549073ffffffffffffffffffffffffffffffffffffffff02191690559055600191505061074a565b8060010190506103b3565b50600090505b919050565b6104dc80610a8083390190565b60008135905061076b81610a51565b92915050565b60008151905061078081610a51565b92915050565b60008135905061079581610a68565b92915050565b6000602082840312156107ad57600080fd5b60006107bb8482850161075c565b91505092915050565b6000602082840312156107d657600080fd5b60006107e484828501610771565b91505092915050565b6000806040838503121561080057600080fd5b600061080e8582860161075c565b925050602061081f8582860161075c565b9150509250929050565b60006020828403121561083b57600080fd5b600061084984828501610786565b91505092915050565b600061085e83836108e6565b60208301905092915050565b610873816109f7565b82525050565b610882816109b1565b82525050565b600061089382610988565b61089d81856109a0565b93506108a883610978565b8060005b838110156108d95781516108c08882610852565b97506108cb83610993565b9250506001810190506108ac565b5085935050505092915050565b6108ef81610a09565b82525050565b6108fe816109e3565b82525050565b60006020820190506109196000830184610879565b92915050565b600060208201905081810360008301526109398184610888565b905092915050565b600060608201905061095660008301866108f5565b610963602083018561086a565b610970604083018461086a565b949350505050565b6000819050602082019050919050565b600081519050919050565b6000602082019050919050565b600082825260208201905092915050565b60006109bc826109c3565b9050919050565b600073ffffffffffffffffffffffffffffffffffffffff82169050919050565b600067ffffffffffffffff82169050919050565b6000610a0282610a2d565b9050919050565b6000610a1482610a1b565b9050919050565b6000610a26826109c3565b9050919050565b6000610a3882610a3f565b9050919050565b6000610a4a826109c3565b9050919050565b610a5a816109b1565b8114610a6557600080fd5b50565b610a71816109e3565b8114610a7c57600080fd5b5056fe608060405234801561001057600080fd5b506040516104dc3803806104dc8339818101604052610032919081019061010e565b826000806101000a81548167ffffffffffffffff021916908367ffffffffffffffff16021790555081600060086101000a81548173ffffffffffffffffffffffffffffffffffffffff021916908373ffffffffffffffffffffffffffffffffffffffff16021790555080600160006101000a81548173ffffffffffffffffffffffffffffffffffffffff021916908373ffffffffffffffffffffffffffffffffffffffff1602179055505050506101d1565b6000815190506100f3816101a3565b92915050565b600081519050610108816101ba565b92915050565b60008060006060848603121561012357600080fd5b6000610131868287016100f9565b9350506020610142868287016100e4565b9250506040610153868287016100e4565b9150509250925092565b60006101688261016f565b9050919050565b600073ffffffffffffffffffffffffffffffffffffffff82169050919050565b600067ffffffffffffffff82169050919050565b6101ac8161015d565b81146101b757600080fd5b50565b6101c38161018f565b81146101ce57600080fd5b50565b6102fc806101e06000396000f3fe608060405234801561001057600080fd5b506004361061004c5760003560e01c806302d05d3f1461005157806313af40351461006f5780633fa4f2451461008b5780638da5cb5b146100a9575b600080fd5b6100596100c7565b6040516100669190610226565b60405180910390f35b610089600480360361008491908101906101df565b6100ed565b005b61009361018b565b6040516100a09190610241565b60405180910390f35b6100b16101a4565b6040516100be9190610226565b60405180910390f35b600160009054906101000a900473ffffffffffffffffffffffffffffffffffffffff1681565b600060089054906101000a900473ffffffffffffffffffffffffffffffffffffffff1673ffffffffffffffffffffffffffffffffffffffff163373ffffffffffffffffffffffffffffffffffffffff161461014757600080fd5b80600060086101000a81548173ffffffffffffffffffffffffffffffffffffffff021916908373ffffffffffffffffffffffffffffffffffffffff16021790555050565b6000809054906101000a900467ffffffffffffffff1681565b600060089054906101000a900473ffffffffffffffffffffffffffffffffffffffff1681565b6000813590506101d9816102a2565b92915050565b6000602082840312156101f157600080fd5b60006101ff848285016101ca565b91505092915050565b6102118161025c565b82525050565b6102208161028e565b82525050565b600060208201905061023b6000830184610208565b92915050565b60006020820190506102566000830184610217565b92915050565b60006102678261026e565b9050919050565b600073ffffffffffffffffffffffffffffffffffffffff82169050919050565b600067ffffffffffffffff82169050919050565b6102ab8161025c565b81146102b657600080fd5b5056fea365627a7a72315820999feb8c5a073bcdbbd7833a4b4dcf38a23f6f9802a508b0d29d58b4b75bf7bf6c6578706572696d656e74616cf564736f6c63430005100040a365627a7a72315820029864cb55b561b63407aac4277a668b5e8968f15e10ff150e84d7c255a4d0c46c6578706572696d656e74616cf564736f6c63430005100040",
  "source": "pragma solidity >=0.4.22 <0.9.0;\npragma experimental ABIEncoderV2;\n\n// Unique shipping token\ncontract Shipment {\n    uint64 public value; // Number of vaccines\n    address public owner;\n    address public creator; // The original Producer\n\n    constructor (uint64 _value, address _owner, address _creator) public {\n        value = _value;\n        owner = _owner;\n        creator = _creator;\n    }\n\n    modifier requireOwner {\n        require (msg.sender == owner);\n        _;\n    }\n\n    function setOwner(address _owner) public requireOwner {\n        owner = _owner;\n    }\n}\n\ncontract ShipmentCenter {\n    mapping (address => Shipment[]) shipments;\n    \n    function getShipments() external view returns (Shipment[] memory) {\n        return shipments[msg.sender];\n    }\n\n    // TODO: Verify address is Producer (0)\n    function createShipment(uint64 _value) external {\n        Shipment ship = new Shipment(_value, msg.sender, msg.sender);\n        shipments[msg.sender].push(ship);\n    }\n\n    function deleteShipment(Shipment ship) internal returns (bool) {\n        for (uint32 i = 0; i < shipments[msg.sender].length; ++i)\n            if (shipments[msg.sender][i] == ship) {\n                require (msg.sender == ship.owner());\n                shipments[msg.sender][i] = shipments[msg.sender][shipments[msg.sender].length-1];\n                shipments[msg.sender].pop();\n                return true;\n            }\n        return false;\n    }\n\n    // TODO: Add verification\n    function transferShipment(address shipment, address to) external {\n        Shipment ship = Shipment(shipment);\n        require (deleteShipment(ship));\n        ship.setOwner(to);\n        shipments[to].push(ship);\n    }\n\n    //TODO: Verify address is End User (2)\n    function completeShipment(address shipment) external {\n        Shipment ship = Shipment(shipment);\n        deleteShipment(ship);\n    }\n}",
  "sourcePath": "/Users/scotthao/Desktop/menlo/contracts/Shipping.sol",
  "compiler": {
    "name": "solc",
    "version": "0.5.16+commit.9c3226ce.Emscripten.clang"
  },
  "schemaVersion": "3.3.4",
  "updatedAt": "2021-03-14T12:38:33.891Z",
  "devdoc": {
    "methods": {}
  },
  "userdoc": {
    "methods": {}
  }
}