{
  "contractName": "Shipment",
  "abi": [
    {
      "inputs": [
        {
          "internalType": "uint64",
          "name": "_value",
          "type": "uint64"
        },
        {
          "internalType": "address",
          "name": "_owner",
          "type": "address"
        },
        {
          "internalType": "address",
          "name": "_creator",
          "type": "address"
        }
      ],
      "stateMutability": "nonpayable",
      "type": "constructor"
    },
    {
      "inputs": [],
      "name": "creator",
      "outputs": [
        {
          "internalType": "address",
          "name": "",
          "type": "address"
        }
      ],
      "stateMutability": "view",
      "type": "function"
    },
    {
      "inputs": [],
      "name": "owner",
      "outputs": [
        {
          "internalType": "address",
          "name": "",
          "type": "address"
        }
      ],
      "stateMutability": "view",
      "type": "function"
    },
    {
      "inputs": [],
      "name": "value",
      "outputs": [
        {
          "internalType": "uint64",
          "name": "",
          "type": "uint64"
        }
      ],
      "stateMutability": "view",
      "type": "function"
    },
    {
      "inputs": [
        {
          "internalType": "address",
          "name": "from",
          "type": "address"
        },
        {
          "internalType": "address",
          "name": "to",
          "type": "address"
        }
      ],
      "name": "setOwner",
      "outputs": [],
      "stateMutability": "nonpayable",
      "type": "function"
    }
  ],
  "bytecode": "0x608060405234801561001057600080fd5b506040516104e23803806104e28339818101604052810190610032919061010e565b826000806101000a81548167ffffffffffffffff021916908367ffffffffffffffff16021790555081600060086101000a81548173ffffffffffffffffffffffffffffffffffffffff021916908373ffffffffffffffffffffffffffffffffffffffff16021790555080600160006101000a81548173ffffffffffffffffffffffffffffffffffffffff021916908373ffffffffffffffffffffffffffffffffffffffff1602179055505050506101d1565b6000815190506100f3816101a3565b92915050565b600081519050610108816101ba565b92915050565b60008060006060848603121561012357600080fd5b6000610131868287016100f9565b9350506020610142868287016100e4565b9250506040610153868287016100e4565b9150509250925092565b60006101688261016f565b9050919050565b600073ffffffffffffffffffffffffffffffffffffffff82169050919050565b600067ffffffffffffffff82169050919050565b6101ac8161015d565b81146101b757600080fd5b50565b6101c38161018f565b81146101ce57600080fd5b50565b610302806101e06000396000f3fe608060405234801561001057600080fd5b506004361061004c5760003560e01c806302d05d3f14610051578063299a7bcc1461006f5780633fa4f2451461008b5780638da5cb5b146100a9575b600080fd5b6100596100c7565b6040516100669190610239565b60405180910390f35b610089600480360381019061008491906101df565b6100ed565b005b61009361018c565b6040516100a09190610254565b60405180910390f35b6100b16101a4565b6040516100be9190610239565b60405180910390f35b600160009054906101000a900473ffffffffffffffffffffffffffffffffffffffff1681565b8173ffffffffffffffffffffffffffffffffffffffff16600060089054906101000a900473ffffffffffffffffffffffffffffffffffffffff1673ffffffffffffffffffffffffffffffffffffffff161461014757600080fd5b80600060086101000a81548173ffffffffffffffffffffffffffffffffffffffff021916908373ffffffffffffffffffffffffffffffffffffffff1602179055505050565b60008054906101000a900467ffffffffffffffff1681565b600060089054906101000a900473ffffffffffffffffffffffffffffffffffffffff1681565b6000813590506101d9816102b5565b92915050565b600080604083850312156101f257600080fd5b6000610200858286016101ca565b9250506020610211858286016101ca565b9150509250929050565b6102248161026f565b82525050565b610233816102a1565b82525050565b600060208201905061024e600083018461021b565b92915050565b6000602082019050610269600083018461022a565b92915050565b600061027a82610281565b9050919050565b600073ffffffffffffffffffffffffffffffffffffffff82169050919050565b600067ffffffffffffffff82169050919050565b6102be8161026f565b81146102c957600080fd5b5056fea2646970667358221220c594e3f3aa020cb5419c68e1d6743901e9148f0633aad56d804a9af4b4964abe64736f6c63430007040033",
  "immutableReferences": {},
  "source": "pragma solidity >=0.4.22 <0.9.0;\npragma experimental ABIEncoderV2;\n\n// Unique shipping token\ncontract Shipment {\n    uint64 public value; // Number of vaccines\n    address public owner;\n    address public creator; // The original Producer\n\n    constructor (uint64 _value, address _owner, address _creator) public {\n        value = _value;\n        owner = _owner;\n        creator = _creator;\n    }\n\n    function setOwner(address from, address to) public {\n        require (owner == from);\n        owner = to;\n    }\n}\n\ncontract ShipmentCenter {\n    mapping (address => address[]) shipments;\n    \n    function getShipments() public view returns (address[] memory) {\n        return shipments[msg.sender];\n    }\n\n    function get(address x) public view returns (address[] memory) {\n        return shipments[x];\n    }\n\n    // TODO: Verify address is Producer (0)\n    function createShipment(uint64 _value) public {\n        Shipment ship = new Shipment(_value, msg.sender, msg.sender);\n        shipments[msg.sender].push(address(ship));\n    }\n\n    function deleteShipment(Shipment ship) internal returns (bool) {\n        for (uint32 i = 0; i < shipments[msg.sender].length; ++i)\n            if (shipments[msg.sender][i] == address(ship)) {\n                require (msg.sender == ship.owner());\n                shipments[msg.sender][i] = shipments[msg.sender][shipments[msg.sender].length-1];\n                shipments[msg.sender].pop();\n                return true;\n            }\n        return false;\n    }\n\n    // TODO: Add verification\n    function transferShipment(address shipment, address to) public {\n        Shipment ship = Shipment(shipment);\n        require (deleteShipment(ship));\n        ship.setOwner(msg.sender, to);\n        shipments[to].push(shipment);\n    }\n\n    //TODO: Verify address is End User (2)\n    function completeShipment(address shipment) public {\n        Shipment ship = Shipment(shipment);\n        deleteShipment(ship);\n    }\n}",
  "sourcePath": "/Users/scotthao/Desktop/menlo/contracts/Shipping.sol",
  "compiler": {
    "name": "solc",
    "version": "0.7.4+commit.3f05b770.Emscripten.clang"
  },
  "schemaVersion": "3.3.4",
  "updatedAt": "2021-03-14T16:31:47.408Z",
  "devdoc": {
    "kind": "dev",
    "methods": {},
    "version": 1
  },
  "userdoc": {
    "kind": "user",
    "methods": {},
    "version": 1
  }
}