{
  "contractName": "Shipment",
  "abi": [
    {
      "inputs": [
        {
          "internalType": "uint64",
          "name": "_value",
          "type": "uint64"
        },
        {
          "internalType": "address",
          "name": "_owner",
          "type": "address"
        },
        {
          "internalType": "address",
          "name": "_creator",
          "type": "address"
        }
      ],
      "payable": false,
      "stateMutability": "nonpayable",
      "type": "constructor"
    },
    {
      "constant": true,
      "inputs": [],
      "name": "creator",
      "outputs": [
        {
          "internalType": "address",
          "name": "",
          "type": "address"
        }
      ],
      "payable": false,
      "stateMutability": "view",
      "type": "function"
    },
    {
      "constant": true,
      "inputs": [],
      "name": "owner",
      "outputs": [
        {
          "internalType": "address",
          "name": "",
          "type": "address"
        }
      ],
      "payable": false,
      "stateMutability": "view",
      "type": "function"
    },
    {
      "constant": true,
      "inputs": [],
      "name": "value",
      "outputs": [
        {
          "internalType": "uint64",
          "name": "",
          "type": "uint64"
        }
      ],
      "payable": false,
      "stateMutability": "view",
      "type": "function"
    },
    {
      "constant": false,
      "inputs": [
        {
          "internalType": "address",
          "name": "_owner",
          "type": "address"
        }
      ],
      "name": "setOwner",
      "outputs": [],
      "payable": false,
      "stateMutability": "nonpayable",
      "type": "function"
    }
  ],
  "bytecode": "0x608060405234801561001057600080fd5b506040516104dc3803806104dc8339818101604052610032919081019061010e565b826000806101000a81548167ffffffffffffffff021916908367ffffffffffffffff16021790555081600060086101000a81548173ffffffffffffffffffffffffffffffffffffffff021916908373ffffffffffffffffffffffffffffffffffffffff16021790555080600160006101000a81548173ffffffffffffffffffffffffffffffffffffffff021916908373ffffffffffffffffffffffffffffffffffffffff1602179055505050506101d1565b6000815190506100f3816101a3565b92915050565b600081519050610108816101ba565b92915050565b60008060006060848603121561012357600080fd5b6000610131868287016100f9565b9350506020610142868287016100e4565b9250506040610153868287016100e4565b9150509250925092565b60006101688261016f565b9050919050565b600073ffffffffffffffffffffffffffffffffffffffff82169050919050565b600067ffffffffffffffff82169050919050565b6101ac8161015d565b81146101b757600080fd5b50565b6101c38161018f565b81146101ce57600080fd5b50565b6102fc806101e06000396000f3fe608060405234801561001057600080fd5b506004361061004c5760003560e01c806302d05d3f1461005157806313af40351461006f5780633fa4f2451461008b5780638da5cb5b146100a9575b600080fd5b6100596100c7565b6040516100669190610226565b60405180910390f35b610089600480360361008491908101906101df565b6100ed565b005b61009361018b565b6040516100a09190610241565b60405180910390f35b6100b16101a4565b6040516100be9190610226565b60405180910390f35b600160009054906101000a900473ffffffffffffffffffffffffffffffffffffffff1681565b600060089054906101000a900473ffffffffffffffffffffffffffffffffffffffff1673ffffffffffffffffffffffffffffffffffffffff163373ffffffffffffffffffffffffffffffffffffffff161461014757600080fd5b80600060086101000a81548173ffffffffffffffffffffffffffffffffffffffff021916908373ffffffffffffffffffffffffffffffffffffffff16021790555050565b6000809054906101000a900467ffffffffffffffff1681565b600060089054906101000a900473ffffffffffffffffffffffffffffffffffffffff1681565b6000813590506101d9816102a2565b92915050565b6000602082840312156101f157600080fd5b60006101ff848285016101ca565b91505092915050565b6102118161025c565b82525050565b6102208161028e565b82525050565b600060208201905061023b6000830184610208565b92915050565b60006020820190506102566000830184610217565b92915050565b60006102678261026e565b9050919050565b600073ffffffffffffffffffffffffffffffffffffffff82169050919050565b600067ffffffffffffffff82169050919050565b6102ab8161025c565b81146102b657600080fd5b5056fea365627a7a72315820999feb8c5a073bcdbbd7833a4b4dcf38a23f6f9802a508b0d29d58b4b75bf7bf6c6578706572696d656e74616cf564736f6c63430005100040",
  "source": "pragma solidity >=0.4.22 <0.9.0;\npragma experimental ABIEncoderV2;\n\n// Unique shipping token\ncontract Shipment {\n    uint64 public value; // Number of vaccines\n    address public owner;\n    address public creator; // The original Producer\n\n    constructor (uint64 _value, address _owner, address _creator) public {\n        value = _value;\n        owner = _owner;\n        creator = _creator;\n    }\n\n    modifier requireOwner {\n        require (msg.sender == owner);\n        _;\n    }\n\n    function setOwner(address _owner) public requireOwner {\n        owner = _owner;\n    }\n}\n\ncontract ShipmentCenter {\n    mapping (address => Shipment[]) shipments;\n    \n    function getShipments() external view returns (Shipment[] memory) {\n        return shipments[msg.sender];\n    }\n\n    // TODO: Verify address is Producer (0)\n    function createShipment(uint64 _value) external {\n        Shipment ship = new Shipment(_value, msg.sender, msg.sender);\n        shipments[msg.sender].push(ship);\n    }\n\n    function deleteShipment(Shipment ship) internal returns (bool) {\n        for (uint32 i = 0; i < shipments[msg.sender].length; ++i)\n            if (shipments[msg.sender][i] == ship) {\n                require (msg.sender == ship.owner());\n                shipments[msg.sender][i] = shipments[msg.sender][shipments[msg.sender].length-1];\n                shipments[msg.sender].pop();\n                return true;\n            }\n        return false;\n    }\n\n    // TODO: Add verification\n    function transferShipment(address shipment, address to) external {\n        Shipment ship = Shipment(shipment);\n        require (deleteShipment(ship));\n        ship.setOwner(to);\n        shipments[to].push(ship);\n    }\n\n    //TODO: Verify address is End User (2)\n    function completeShipment(address shipment) external {\n        Shipment ship = Shipment(shipment);\n        deleteShipment(ship);\n    }\n}",
  "sourcePath": "/Users/scotthao/Desktop/menlo/contracts/Shipping.sol",
  "compiler": {
    "name": "solc",
    "version": "0.5.16+commit.9c3226ce.Emscripten.clang"
  },
  "schemaVersion": "3.3.4",
  "updatedAt": "2021-03-14T12:38:33.884Z",
  "devdoc": {
    "methods": {}
  },
  "userdoc": {
    "methods": {}
  }
}