{
  "contractName": "Shipment",
  "abi": [
    {
      "inputs": [
        {
          "internalType": "uint256",
          "name": "_id",
          "type": "uint256"
        },
        {
          "internalType": "bytes32",
          "name": "_description",
          "type": "bytes32"
        },
        {
          "internalType": "uint64",
          "name": "_value",
          "type": "uint64"
        },
        {
          "internalType": "address",
          "name": "_owner",
          "type": "address"
        },
        {
          "internalType": "address",
          "name": "_creator",
          "type": "address"
        }
      ],
      "payable": false,
      "stateMutability": "nonpayable",
      "type": "constructor"
    },
    {
      "constant": true,
      "inputs": [],
      "name": "active",
      "outputs": [
        {
          "internalType": "bool",
          "name": "",
          "type": "bool"
        }
      ],
      "payable": false,
      "stateMutability": "view",
      "type": "function"
    },
    {
      "constant": true,
      "inputs": [],
      "name": "creator",
      "outputs": [
        {
          "internalType": "address",
          "name": "",
          "type": "address"
        }
      ],
      "payable": false,
      "stateMutability": "view",
      "type": "function"
    },
    {
      "constant": true,
      "inputs": [],
      "name": "description",
      "outputs": [
        {
          "internalType": "bytes32",
          "name": "",
          "type": "bytes32"
        }
      ],
      "payable": false,
      "stateMutability": "view",
      "type": "function"
    },
    {
      "constant": true,
      "inputs": [],
      "name": "id",
      "outputs": [
        {
          "internalType": "uint256",
          "name": "",
          "type": "uint256"
        }
      ],
      "payable": false,
      "stateMutability": "view",
      "type": "function"
    },
    {
      "constant": true,
      "inputs": [],
      "name": "owner",
      "outputs": [
        {
          "internalType": "address",
          "name": "",
          "type": "address"
        }
      ],
      "payable": false,
      "stateMutability": "view",
      "type": "function"
    },
    {
      "constant": true,
      "inputs": [],
      "name": "value",
      "outputs": [
        {
          "internalType": "uint64",
          "name": "",
          "type": "uint64"
        }
      ],
      "payable": false,
      "stateMutability": "view",
      "type": "function"
    }
  ],
  "bytecode": "0x608060405234801561001057600080fd5b506040516105a03803806105a083398181016040526100329190810190610149565b846000819055508360018190555082600260006101000a81548167ffffffffffffffff021916908367ffffffffffffffff16021790555081600260086101000a81548173ffffffffffffffffffffffffffffffffffffffff021916908373ffffffffffffffffffffffffffffffffffffffff16021790555080600360006101000a81548173ffffffffffffffffffffffffffffffffffffffff021916908373ffffffffffffffffffffffffffffffffffffffff1602179055505050505050610276565b6000815190506101048161021a565b92915050565b60008151905061011981610231565b92915050565b60008151905061012e81610248565b92915050565b6000815190506101438161025f565b92915050565b600080600080600060a0868803121561016157600080fd5b600061016f8882890161011f565b95505060206101808882890161010a565b945050604061019188828901610134565b93505060606101a2888289016100f5565b92505060806101b3888289016100f5565b9150509295509295909350565b60006101cb826101dc565b9050919050565b6000819050919050565b600073ffffffffffffffffffffffffffffffffffffffff82169050919050565b6000819050919050565b600067ffffffffffffffff82169050919050565b610223816101c0565b811461022e57600080fd5b50565b61023a816101d2565b811461024557600080fd5b50565b610251816101fc565b811461025c57600080fd5b50565b61026881610206565b811461027357600080fd5b50565b61031b806102856000396000f3fe608060405234801561001057600080fd5b50600436106100625760003560e01c806302d05d3f1461006757806302fb0c5e146100855780633fa4f245146100a35780637284e416146100c15780638da5cb5b146100df578063af640d0f146100fd575b600080fd5b61006f61011b565b60405161007c91906101eb565b60405180910390f35b61008d610141565b60405161009a9190610206565b60405180910390f35b6100ab610154565b6040516100b89190610257565b60405180910390f35b6100c961016e565b6040516100d69190610221565b60405180910390f35b6100e7610174565b6040516100f491906101eb565b60405180910390f35b61010561019a565b604051610112919061023c565b60405180910390f35b600360009054906101000a900473ffffffffffffffffffffffffffffffffffffffff1681565b600360149054906101000a900460ff1681565b600260009054906101000a900467ffffffffffffffff1681565b60015481565b600260089054906101000a900473ffffffffffffffffffffffffffffffffffffffff1681565b60005481565b6101a981610272565b82525050565b6101b881610284565b82525050565b6101c781610290565b82525050565b6101d6816102ba565b82525050565b6101e5816102c4565b82525050565b600060208201905061020060008301846101a0565b92915050565b600060208201905061021b60008301846101af565b92915050565b600060208201905061023660008301846101be565b92915050565b600060208201905061025160008301846101cd565b92915050565b600060208201905061026c60008301846101dc565b92915050565b600061027d8261029a565b9050919050565b60008115159050919050565b6000819050919050565b600073ffffffffffffffffffffffffffffffffffffffff82169050919050565b6000819050919050565b600067ffffffffffffffff8216905091905056fea365627a7a72315820c6ded04d775a8baf46d69d0c3bb582914247d84438ef4479745e412d40d41c456c6578706572696d656e74616cf564736f6c63430005100040",
  "source": "pragma solidity >=0.4.22 <0.9.0;\npragma experimental ABIEncoderV2;\n\n// Unique shipping token\ncontract Shipment {\n    uint public id;\n    bytes32 public description;\n    uint64 public value; // Number of vaccines\n    address public owner;\n    address public creator; // The original Producer\n    bool public active; // Whether the shipment is on the move (becomes false when it reaches final destination)\n\n    constructor (uint _id, bytes32 _description, uint64 _value, address _owner, address _creator) public {\n        id = _id;\n        description = _description;\n        value = _value;\n        owner = _owner;\n        creator = _creator;\n    }\n}\n\ncontract ShipmentCenter {\n    mapping (address => Shipment[]) shipments;\n    uint totalSupply;\n    \n    function getShipments() external view returns (Shipment[] memory) {\n        return shipments[msg.sender];\n    }\n\n    // TODO: Verify address is Producer (0)\n    function createShipment(bytes32 _description, uint64 _value) external {\n        // totalSupply used as ID\n        shipments[msg.sender].push(new Shipment(totalSupply, _description, _value, msg.sender, msg.sender));\n        ++totalSupply;\n    }\n\n    function deleteShipment(address shipment) internal returns (bool) {\n        for (uint32 i = 0; i < shipments[msg.sender].length; ++i)\n            if (address(shipments[msg.sender][i]) == shipment) {\n                shipments[msg.sender][i] = shipments[msg.sender][shipments[msg.sender].length-1];\n                shipments[msg.sender].pop();\n                return true;\n            }\n        return false;\n    }\n\n    // TODO: Add verification\n    function transferShipment(address shipment, address to) external {\n        require (deleteShipment(shipment));\n        shipments[to].push(Shipment(shipment));\n    }\n\n    //TODO: Verify address is End User (2)\n    function completeShipment(address shipment) external {\n        deleteShipment(shipment);\n    }\n}",
  "sourcePath": "/Users/scotthao/Desktop/menlo/contracts/Shipping.sol",
  "compiler": {
    "name": "solc",
    "version": "0.5.16+commit.9c3226ce.Emscripten.clang"
  },
  "schemaVersion": "3.3.4",
  "updatedAt": "2021-03-14T05:12:59.867Z",
  "devdoc": {
    "methods": {}
  },
  "userdoc": {
    "methods": {}
  }
}