{
  "contractName": "Shipment",
  "abi": [
    {
      "inputs": [
        {
          "internalType": "bytes32",
          "name": "_description",
          "type": "bytes32"
        },
        {
          "internalType": "uint64",
          "name": "_value",
          "type": "uint64"
        },
        {
          "internalType": "address",
          "name": "_owner",
          "type": "address"
        },
        {
          "internalType": "address",
          "name": "_creator",
          "type": "address"
        }
      ],
      "payable": false,
      "stateMutability": "nonpayable",
      "type": "constructor"
    },
    {
      "constant": true,
      "inputs": [],
      "name": "active",
      "outputs": [
        {
          "internalType": "bool",
          "name": "",
          "type": "bool"
        }
      ],
      "payable": false,
      "stateMutability": "view",
      "type": "function"
    },
    {
      "constant": true,
      "inputs": [],
      "name": "creator",
      "outputs": [
        {
          "internalType": "address",
          "name": "",
          "type": "address"
        }
      ],
      "payable": false,
      "stateMutability": "view",
      "type": "function"
    },
    {
      "constant": true,
      "inputs": [],
      "name": "description",
      "outputs": [
        {
          "internalType": "bytes32",
          "name": "",
          "type": "bytes32"
        }
      ],
      "payable": false,
      "stateMutability": "view",
      "type": "function"
    },
    {
      "constant": true,
      "inputs": [],
      "name": "owner",
      "outputs": [
        {
          "internalType": "address",
          "name": "",
          "type": "address"
        }
      ],
      "payable": false,
      "stateMutability": "view",
      "type": "function"
    },
    {
      "constant": true,
      "inputs": [],
      "name": "value",
      "outputs": [
        {
          "internalType": "uint64",
          "name": "",
          "type": "uint64"
        }
      ],
      "payable": false,
      "stateMutability": "view",
      "type": "function"
    },
    {
      "constant": false,
      "inputs": [
        {
          "internalType": "address",
          "name": "_owner",
          "type": "address"
        }
      ],
      "name": "setOwner",
      "outputs": [],
      "payable": false,
      "stateMutability": "nonpayable",
      "type": "function"
    },
    {
      "constant": false,
      "inputs": [],
      "name": "deactivate",
      "outputs": [],
      "payable": false,
      "stateMutability": "nonpayable",
      "type": "function"
    }
  ],
  "bytecode": "0x608060405234801561001057600080fd5b506040516106bc3803806106bc83398181016040526100329190810190610147565b8360008190555082600160006101000a81548167ffffffffffffffff021916908367ffffffffffffffff16021790555081600160086101000a81548173ffffffffffffffffffffffffffffffffffffffff021916908373ffffffffffffffffffffffffffffffffffffffff16021790555080600260006101000a81548173ffffffffffffffffffffffffffffffffffffffff021916908373ffffffffffffffffffffffffffffffffffffffff1602179055506001600260146101000a81548160ff0219169083151502179055505050505061023f565b600081519050610117816101fa565b92915050565b60008151905061012c81610211565b92915050565b60008151905061014181610228565b92915050565b6000806000806080858703121561015d57600080fd5b600061016b8782880161011d565b945050602061017c87828801610132565b935050604061018d87828801610108565b925050606061019e87828801610108565b91505092959194509250565b60006101b5826101c6565b9050919050565b6000819050919050565b600073ffffffffffffffffffffffffffffffffffffffff82169050919050565b600067ffffffffffffffff82169050919050565b610203816101aa565b811461020e57600080fd5b50565b61021a816101bc565b811461022557600080fd5b50565b610231816101e6565b811461023c57600080fd5b50565b61046e8061024e6000396000f3fe608060405234801561001057600080fd5b506004361061007d5760003560e01c80633fa4f2451161005b5780633fa4f245146100da57806351b42b00146100f85780637284e416146101025780638da5cb5b146101205761007d565b806302d05d3f1461008257806302fb0c5e146100a057806313af4035146100be575b600080fd5b61008a61013e565b604051610097919061034c565b60405180910390f35b6100a8610164565b6040516100b59190610367565b60405180910390f35b6100d860048036036100d391908101906102e7565b610177565b005b6100e2610215565b6040516100ef919061039d565b60405180910390f35b61010061022f565b005b61010a6102a6565b6040516101179190610382565b60405180910390f35b6101286102ac565b604051610135919061034c565b60405180910390f35b600260009054906101000a900473ffffffffffffffffffffffffffffffffffffffff1681565b600260149054906101000a900460ff1681565b600160089054906101000a900473ffffffffffffffffffffffffffffffffffffffff1673ffffffffffffffffffffffffffffffffffffffff163373ffffffffffffffffffffffffffffffffffffffff16146101d157600080fd5b80600160086101000a81548173ffffffffffffffffffffffffffffffffffffffff021916908373ffffffffffffffffffffffffffffffffffffffff16021790555050565b600160009054906101000a900467ffffffffffffffff1681565b600160089054906101000a900473ffffffffffffffffffffffffffffffffffffffff1673ffffffffffffffffffffffffffffffffffffffff163373ffffffffffffffffffffffffffffffffffffffff161461028957600080fd5b6000600260146101000a81548160ff021916908315150217905550565b60005481565b600160089054906101000a900473ffffffffffffffffffffffffffffffffffffffff1681565b6000813590506102e181610414565b92915050565b6000602082840312156102f957600080fd5b6000610307848285016102d2565b91505092915050565b610319816103b8565b82525050565b610328816103ca565b82525050565b610337816103d6565b82525050565b61034681610400565b82525050565b60006020820190506103616000830184610310565b92915050565b600060208201905061037c600083018461031f565b92915050565b6000602082019050610397600083018461032e565b92915050565b60006020820190506103b2600083018461033d565b92915050565b60006103c3826103e0565b9050919050565b60008115159050919050565b6000819050919050565b600073ffffffffffffffffffffffffffffffffffffffff82169050919050565b600067ffffffffffffffff82169050919050565b61041d816103b8565b811461042857600080fd5b5056fea365627a7a723158205382b940361dd0dd0d0ca6959e3d67567c74176c89e35c04c5ae08ba46f0877c6c6578706572696d656e74616cf564736f6c63430005100040",
  "source": "pragma solidity >=0.4.22 <0.9.0;\npragma experimental ABIEncoderV2;\n\n// Unique shipping token\ncontract Shipment {\n    bytes32 public description;\n    uint64 public value; // Number of vaccines\n    address public owner;\n    address public creator; // The original Producer\n    bool public active; // Whether the shipment is on the move (becomes false when it reaches final destination)\n\n    constructor (bytes32 _description, uint64 _value, address _owner, address _creator) public {\n        description = _description;\n        value = _value;\n        owner = _owner;\n        creator = _creator;\n        active = true;\n    }\n\n    modifier requireOwner {\n        require (msg.sender == owner);\n        _;\n    }\n\n    function setOwner(address _owner) public requireOwner {\n        owner = _owner;\n    }\n\n    function deactivate() public requireOwner {\n        active = false;\n    }\n}\n\ncontract ShipmentCenter {\n    mapping (address => Shipment[]) shipments;\n    \n    function getShipments() external view returns (Shipment[] memory) {\n        return shipments[msg.sender];\n    }\n\n    // TODO: Verify address is Producer (0)\n    function createShipment(bytes32 _description, uint64 _value) external {\n        shipments[msg.sender].push(new Shipment(_description, _value, msg.sender, msg.sender));\n    }\n\n    function deleteShipment(Shipment ship) internal returns (bool) {\n        for (uint32 i = 0; i < shipments[msg.sender].length; ++i)\n            if (shipments[msg.sender][i] == ship) {\n                require (msg.sender == ship.owner());\n                shipments[msg.sender][i] = shipments[msg.sender][shipments[msg.sender].length-1];\n                shipments[msg.sender].pop();\n                return true;\n            }\n        return false;\n    }\n\n    // TODO: Add verification\n    function transferShipment(address shipment, address to) external {\n        Shipment ship = Shipment(shipment);\n        require (ship.active());\n        require (deleteShipment(ship));\n        ship.setOwner(to);\n        shipments[to].push(ship);\n    }\n\n    //TODO: Verify address is End User (2)\n    function completeShipment(address shipment) external {\n        Shipment ship = Shipment(shipment);\n        ship.deactivate();\n        deleteShipment(ship);\n    }\n}",
  "sourcePath": "/Users/scotthao/Desktop/menlo/contracts/Shipping.sol",
  "compiler": {
    "name": "solc",
    "version": "0.5.16+commit.9c3226ce.Emscripten.clang"
  },
  "schemaVersion": "3.3.4",
  "updatedAt": "2021-03-14T06:41:56.877Z",
  "devdoc": {
    "methods": {}
  },
  "userdoc": {
    "methods": {}
  }
}