{
  "contractName": "ShipmentCenter",
  "abi": [
    {
      "constant": true,
      "inputs": [],
      "name": "getShipments",
      "outputs": [
        {
          "internalType": "contract Shipment[]",
          "name": "",
          "type": "address[]"
        }
      ],
      "payable": false,
      "stateMutability": "view",
      "type": "function"
    },
    {
      "constant": false,
      "inputs": [
        {
          "internalType": "bytes32",
          "name": "_description",
          "type": "bytes32"
        },
        {
          "internalType": "uint64",
          "name": "_value",
          "type": "uint64"
        }
      ],
      "name": "createShipment",
      "outputs": [],
      "payable": false,
      "stateMutability": "nonpayable",
      "type": "function"
    },
    {
      "constant": false,
      "inputs": [
        {
          "internalType": "address",
          "name": "shipment",
          "type": "address"
        },
        {
          "internalType": "address",
          "name": "to",
          "type": "address"
        }
      ],
      "name": "transferShipment",
      "outputs": [],
      "payable": false,
      "stateMutability": "nonpayable",
      "type": "function"
    },
    {
      "constant": false,
      "inputs": [
        {
          "internalType": "address",
          "name": "shipment",
          "type": "address"
        }
      ],
      "name": "completeShipment",
      "outputs": [],
      "payable": false,
      "stateMutability": "nonpayable",
      "type": "function"
    }
  ],
  "bytecode": "0x608060405234801561001057600080fd5b50610fe3806100206000396000f3fe60806040523480156200001157600080fd5b5060043610620000525760003560e01c8063347e2a1614620000575780634572290d146200007957806350d5f31114620000995780639252b1a314620000b9575b600080fd5b62000061620000d9565b60405162000070919062000838565b60405180910390f35b620000976004803603620000919190810190620006b1565b620001a5565b005b620000b76004803603620000b19190810190620006dd565b620001b4565b005b620000d76004803603620000d191908101906200071e565b6200026f565b005b60606000803373ffffffffffffffffffffffffffffffffffffffff1673ffffffffffffffffffffffffffffffffffffffff1681526020019081526020016000208054806020026020016040519081016040528092919081815260200182805480156200019b57602002820191906000526020600020905b8160009054906101000a900473ffffffffffffffffffffffffffffffffffffffff1673ffffffffffffffffffffffffffffffffffffffff168152602001906001019080831162000150575b5050505050905090565b620001b08162000367565b5050565b620001bf8262000367565b620001c957600080fd5b6000808273ffffffffffffffffffffffffffffffffffffffff1673ffffffffffffffffffffffffffffffffffffffff1681526020019081526020016000208290806001815401808255809150509060018203906000526020600020016000909192909190916101000a81548173ffffffffffffffffffffffffffffffffffffffff021916908373ffffffffffffffffffffffffffffffffffffffff160217905550505050565b6000803373ffffffffffffffffffffffffffffffffffffffff1673ffffffffffffffffffffffffffffffffffffffff16815260200190815260200160002060015483833333604051620002c2906200065e565b620002d29594939291906200085c565b604051809103906000f080158015620002ef573d6000803e3d6000fd5b5090806001815401808255809150509060018203906000526020600020016000909192909190916101000a81548173ffffffffffffffffffffffffffffffffffffffff021916908373ffffffffffffffffffffffffffffffffffffffff16021790555050600160008154600101919050819055505050565b600080600090505b6000803373ffffffffffffffffffffffffffffffffffffffff1673ffffffffffffffffffffffffffffffffffffffff168152602001908152602001600020805490508163ffffffff16101562000653578273ffffffffffffffffffffffffffffffffffffffff166000803373ffffffffffffffffffffffffffffffffffffffff1673ffffffffffffffffffffffffffffffffffffffff1681526020019081526020016000208263ffffffff16815481106200042657fe5b9060005260206000200160009054906101000a900473ffffffffffffffffffffffffffffffffffffffff1673ffffffffffffffffffffffffffffffffffffffff16141562000647576000803373ffffffffffffffffffffffffffffffffffffffff1673ffffffffffffffffffffffffffffffffffffffff16815260200190815260200160002060016000803373ffffffffffffffffffffffffffffffffffffffff1673ffffffffffffffffffffffffffffffffffffffff168152602001908152602001600020805490500381548110620004fc57fe5b9060005260206000200160009054906101000a900473ffffffffffffffffffffffffffffffffffffffff166000803373ffffffffffffffffffffffffffffffffffffffff1673ffffffffffffffffffffffffffffffffffffffff1681526020019081526020016000208263ffffffff16815481106200057757fe5b9060005260206000200160006101000a81548173ffffffffffffffffffffffffffffffffffffffff021916908373ffffffffffffffffffffffffffffffffffffffff1602179055506000803373ffffffffffffffffffffffffffffffffffffffff1673ffffffffffffffffffffffffffffffffffffffff1681526020019081526020016000208054806200060757fe5b6001900381819060005260206000200160006101000a81549073ffffffffffffffffffffffffffffffffffffffff02191690559055600191505062000659565b8060010190506200036f565b50600090505b919050565b6105a08062000a0183390190565b6000813590506200067d81620009b2565b92915050565b6000813590506200069481620009cc565b92915050565b600081359050620006ab81620009e6565b92915050565b600060208284031215620006c457600080fd5b6000620006d4848285016200066c565b91505092915050565b60008060408385031215620006f157600080fd5b600062000701858286016200066c565b925050602062000714858286016200066c565b9150509250929050565b600080604083850312156200073257600080fd5b6000620007428582860162000683565b925050602062000755858286016200069a565b9150509250929050565b60006200076d838362000805565b60208301905092915050565b62000784816200094e565b82525050565b60006200079782620008c9565b620007a38185620008e1565b9350620007b083620008b9565b8060005b83811015620007e7578151620007cb88826200075f565b9750620007d883620008d4565b925050600181019050620007b4565b5085935050505092915050565b620007ff8162000906565b82525050565b620008108162000962565b82525050565b620008218162000930565b82525050565b62000832816200093a565b82525050565b600060208201905081810360008301526200085481846200078a565b905092915050565b600060a08201905062000873600083018862000816565b620008826020830187620007f4565b62000891604083018662000827565b620008a0606083018562000779565b620008af608083018462000779565b9695505050505050565b6000819050602082019050919050565b600081519050919050565b6000602082019050919050565b600082825260208201905092915050565b6000620008ff8262000910565b9050919050565b6000819050919050565b600073ffffffffffffffffffffffffffffffffffffffff82169050919050565b6000819050919050565b600067ffffffffffffffff82169050919050565b60006200095b826200098a565b9050919050565b60006200096f8262000976565b9050919050565b6000620009838262000910565b9050919050565b600062000997826200099e565b9050919050565b6000620009ab8262000910565b9050919050565b620009bd81620008f2565b8114620009c957600080fd5b50565b620009d78162000906565b8114620009e357600080fd5b50565b620009f1816200093a565b8114620009fd57600080fd5b5056fe608060405234801561001057600080fd5b506040516105a03803806105a083398181016040526100329190810190610149565b846000819055508360018190555082600260006101000a81548167ffffffffffffffff021916908367ffffffffffffffff16021790555081600260086101000a81548173ffffffffffffffffffffffffffffffffffffffff021916908373ffffffffffffffffffffffffffffffffffffffff16021790555080600360006101000a81548173ffffffffffffffffffffffffffffffffffffffff021916908373ffffffffffffffffffffffffffffffffffffffff1602179055505050505050610276565b6000815190506101048161021a565b92915050565b60008151905061011981610231565b92915050565b60008151905061012e81610248565b92915050565b6000815190506101438161025f565b92915050565b600080600080600060a0868803121561016157600080fd5b600061016f8882890161011f565b95505060206101808882890161010a565b945050604061019188828901610134565b93505060606101a2888289016100f5565b92505060806101b3888289016100f5565b9150509295509295909350565b60006101cb826101dc565b9050919050565b6000819050919050565b600073ffffffffffffffffffffffffffffffffffffffff82169050919050565b6000819050919050565b600067ffffffffffffffff82169050919050565b610223816101c0565b811461022e57600080fd5b50565b61023a816101d2565b811461024557600080fd5b50565b610251816101fc565b811461025c57600080fd5b50565b61026881610206565b811461027357600080fd5b50565b61031b806102856000396000f3fe608060405234801561001057600080fd5b50600436106100625760003560e01c806302d05d3f1461006757806302fb0c5e146100855780633fa4f245146100a35780637284e416146100c15780638da5cb5b146100df578063af640d0f146100fd575b600080fd5b61006f61011b565b60405161007c91906101eb565b60405180910390f35b61008d610141565b60405161009a9190610206565b60405180910390f35b6100ab610154565b6040516100b89190610257565b60405180910390f35b6100c961016e565b6040516100d69190610221565b60405180910390f35b6100e7610174565b6040516100f491906101eb565b60405180910390f35b61010561019a565b604051610112919061023c565b60405180910390f35b600360009054906101000a900473ffffffffffffffffffffffffffffffffffffffff1681565b600360149054906101000a900460ff1681565b600260009054906101000a900467ffffffffffffffff1681565b60015481565b600260089054906101000a900473ffffffffffffffffffffffffffffffffffffffff1681565b60005481565b6101a981610272565b82525050565b6101b881610284565b82525050565b6101c781610290565b82525050565b6101d6816102ba565b82525050565b6101e5816102c4565b82525050565b600060208201905061020060008301846101a0565b92915050565b600060208201905061021b60008301846101af565b92915050565b600060208201905061023660008301846101be565b92915050565b600060208201905061025160008301846101cd565b92915050565b600060208201905061026c60008301846101dc565b92915050565b600061027d8261029a565b9050919050565b60008115159050919050565b6000819050919050565b600073ffffffffffffffffffffffffffffffffffffffff82169050919050565b6000819050919050565b600067ffffffffffffffff8216905091905056fea365627a7a72315820c6ded04d775a8baf46d69d0c3bb582914247d84438ef4479745e412d40d41c456c6578706572696d656e74616cf564736f6c63430005100040a365627a7a72315820e0c8603d8d084648dc870e2815aaa416aba91c9060b1f7062af2c17556c4ba1a6c6578706572696d656e74616cf564736f6c63430005100040",
  "source": "pragma solidity >=0.4.22 <0.9.0;\npragma experimental ABIEncoderV2;\n\n// Unique shipping token\ncontract Shipment {\n    uint public id;\n    bytes32 public description;\n    uint64 public value; // Number of vaccines\n    address public owner;\n    address public creator; // The original Producer\n    bool public active; // Whether the shipment is on the move (becomes false when it reaches final destination)\n\n    constructor (uint _id, bytes32 _description, uint64 _value, address _owner, address _creator) public {\n        id = _id;\n        description = _description;\n        value = _value;\n        owner = _owner;\n        creator = _creator;\n    }\n}\n\ncontract ShipmentCenter {\n    mapping (address => Shipment[]) shipments;\n    uint totalSupply;\n    \n    function getShipments() external view returns (Shipment[] memory) {\n        return shipments[msg.sender];\n    }\n\n    // TODO: Verify address is Producer (0)\n    function createShipment(bytes32 _description, uint64 _value) external {\n        // totalSupply used as ID\n        shipments[msg.sender].push(new Shipment(totalSupply, _description, _value, msg.sender, msg.sender));\n        ++totalSupply;\n    }\n\n    function deleteShipment(address shipment) internal returns (bool) {\n        for (uint32 i = 0; i < shipments[msg.sender].length; ++i)\n            if (address(shipments[msg.sender][i]) == shipment) {\n                shipments[msg.sender][i] = shipments[msg.sender][shipments[msg.sender].length-1];\n                shipments[msg.sender].pop();\n                return true;\n            }\n        return false;\n    }\n\n    // TODO: Add verification\n    function transferShipment(address shipment, address to) external {\n        require (deleteShipment(shipment));\n        shipments[to].push(Shipment(shipment));\n    }\n\n    //TODO: Verify address is End User (2)\n    function completeShipment(address shipment) external {\n        deleteShipment(shipment);\n    }\n}",
  "sourcePath": "/Users/scotthao/Desktop/menlo/contracts/Shipping.sol",
  "compiler": {
    "name": "solc",
    "version": "0.5.16+commit.9c3226ce.Emscripten.clang"
  },
  "schemaVersion": "3.3.4",
  "updatedAt": "2021-03-14T05:19:32.447Z",
  "networkType": "ethereum",
  "devdoc": {
    "methods": {}
  },
  "userdoc": {
    "methods": {}
  }
}